{
  "_format": "hh-sol-artifact-1",
  "contractName": "FundRaiser",
  "sourceName": "contracts/FundRaiser.sol",
  "abi": [
    {
      "inputs": [
        {
          "internalType": "address",
          "name": "priceFeed",
          "type": "address"
        }
      ],
      "stateMutability": "nonpayable",
      "type": "constructor"
    },
    {
      "inputs": [],
      "name": "FundRaiser__NotOwner",
      "type": "error"
    },
    {
      "anonymous": false,
      "inputs": [
        {
          "indexed": true,
          "internalType": "address",
          "name": "funder",
          "type": "address"
        },
        {
          "indexed": false,
          "internalType": "uint256",
          "name": "amount",
          "type": "uint256"
        }
      ],
      "name": "Funded",
      "type": "event"
    },
    {
      "inputs": [],
      "name": "MINIMUM_USD",
      "outputs": [
        {
          "internalType": "uint256",
          "name": "",
          "type": "uint256"
        }
      ],
      "stateMutability": "view",
      "type": "function"
    },
    {
      "inputs": [],
      "name": "fund",
      "outputs": [],
      "stateMutability": "payable",
      "type": "function"
    },
    {
      "inputs": [],
      "name": "withdraw",
      "outputs": [],
      "stateMutability": "nonpayable",
      "type": "function"
    },
    {
      "inputs": [
        {
          "internalType": "address",
          "name": "recipient",
          "type": "address"
        }
      ],
      "name": "withdrawToAddress",
      "outputs": [],
      "stateMutability": "nonpayable",
      "type": "function"
    }
  ],
  "bytecode": "0x60a060405234801561000f575f80fd5b50604051610eab380380610eab83398181016040528101906100319190610109565b8060025f6101000a81548173ffffffffffffffffffffffffffffffffffffffff021916908373ffffffffffffffffffffffffffffffffffffffff1602179055503373ffffffffffffffffffffffffffffffffffffffff1660808173ffffffffffffffffffffffffffffffffffffffff168152505050610134565b5f80fd5b5f73ffffffffffffffffffffffffffffffffffffffff82169050919050565b5f6100d8826100af565b9050919050565b6100e8816100ce565b81146100f2575f80fd5b50565b5f81519050610103816100df565b92915050565b5f6020828403121561011e5761011d6100ab565b5b5f61012b848285016100f5565b91505092915050565b608051610d526101595f395f818160b60152818161023701526102d60152610d525ff3fe60806040526004361061003e575f3560e01c80633ccfd60b146100425780636b69a59214610058578063a92bd72c14610082578063b60d4288146100aa575b5f80fd5b34801561004d575f80fd5b506100566100b4565b005b348015610063575f80fd5b5061006c6102c8565b60405161007991906107c4565b60405180910390f35b34801561008d575f80fd5b506100a860048036038101906100a3919061083b565b6102d4565b005b6100b26104cb565b005b7f000000000000000000000000000000000000000000000000000000000000000073ffffffffffffffffffffffffffffffffffffffff163373ffffffffffffffffffffffffffffffffffffffff1614610139576040517f41c94add00000000000000000000000000000000000000000000000000000000815260040160405180910390fd5b5f5b5f805490508110156101d5575f80828154811061015b5761015a610866565b5b905f5260205f20015f9054906101000a900473ffffffffffffffffffffffffffffffffffffffff1690505f60015f8373ffffffffffffffffffffffffffffffffffffffff1673ffffffffffffffffffffffffffffffffffffffff1681526020019081526020015f208190555050808060010191505061013b565b505f67ffffffffffffffff8111156101f0576101ef610893565b5b60405190808252806020026020018201604052801561021e5781602001602082028036833780820191505090505b505f908051906020019061023392919061070a565b505f7f000000000000000000000000000000000000000000000000000000000000000073ffffffffffffffffffffffffffffffffffffffff1647604051610279906108ed565b5f6040518083038185875af1925050503d805f81146102b3576040519150601f19603f3d011682016040523d82523d5f602084013e6102b8565b606091505b50509050806102c5575f80fd5b50565b674563918244f4000081565b7f000000000000000000000000000000000000000000000000000000000000000073ffffffffffffffffffffffffffffffffffffffff163373ffffffffffffffffffffffffffffffffffffffff1614610359576040517f41c94add00000000000000000000000000000000000000000000000000000000815260040160405180910390fd5b5f60015f8373ffffffffffffffffffffffffffffffffffffffff1673ffffffffffffffffffffffffffffffffffffffff1681526020019081526020015f205490505f81116103dc576040517f08c379a00000000000000000000000000000000000000000000000000000000081526004016103d390610981565b60405180910390fd5b5f60015f8473ffffffffffffffffffffffffffffffffffffffff1673ffffffffffffffffffffffffffffffffffffffff1681526020019081526020015f20819055505f8273ffffffffffffffffffffffffffffffffffffffff1682604051610443906108ed565b5f6040518083038185875af1925050503d805f811461047d576040519150601f19603f3d011682016040523d82523d5f602084013e610482565b606091505b50509050806104c6576040517f08c379a00000000000000000000000000000000000000000000000000000000081526004016104bd90610a0f565b60405180910390fd5b505050565b674563918244f400006104ff3460025f9054906101000a900473ffffffffffffffffffffffffffffffffffffffff16610642565b1015610540576040517f08c379a000000000000000000000000000000000000000000000000000000000815260040161053790610a77565b60405180910390fd5b3460015f3373ffffffffffffffffffffffffffffffffffffffff1673ffffffffffffffffffffffffffffffffffffffff1681526020019081526020015f205f82825461058c9190610ac2565b925050819055505f33908060018154018082558091505060019003905f5260205f20015f9091909190916101000a81548173ffffffffffffffffffffffffffffffffffffffff021916908373ffffffffffffffffffffffffffffffffffffffff1602179055503373ffffffffffffffffffffffffffffffffffffffff167f5af8184bef8e4b45eb9f6ed7734d04da38ced226495548f46e0c8ff8d7d9a5243460405161063891906107c4565b60405180910390a2565b5f8061064d8361067c565b90505f670de0b6b3a764000085836106659190610af5565b61066f9190610b63565b9050809250505092915050565b5f808273ffffffffffffffffffffffffffffffffffffffff1663feaf968c6040518163ffffffff1660e01b815260040160a060405180830381865afa1580156106c7573d5f803e3d5ffd5b505050506040513d601f19601f820116820180604052508101906106eb9190610c2f565b5050509150506402540be400816107029190610ca6565b915050919050565b828054828255905f5260205f20908101928215610780579160200282015b8281111561077f578251825f6101000a81548173ffffffffffffffffffffffffffffffffffffffff021916908373ffffffffffffffffffffffffffffffffffffffff16021790555091602001919060010190610728565b5b50905061078d9190610791565b5090565b5b808211156107a8575f815f905550600101610792565b5090565b5f819050919050565b6107be816107ac565b82525050565b5f6020820190506107d75f8301846107b5565b92915050565b5f80fd5b5f73ffffffffffffffffffffffffffffffffffffffff82169050919050565b5f61080a826107e1565b9050919050565b61081a81610800565b8114610824575f80fd5b50565b5f8135905061083581610811565b92915050565b5f602082840312156108505761084f6107dd565b5b5f61085d84828501610827565b91505092915050565b7f4e487b71000000000000000000000000000000000000000000000000000000005f52603260045260245ffd5b7f4e487b71000000000000000000000000000000000000000000000000000000005f52604160045260245ffd5b5f81905092915050565b50565b5f6108d85f836108c0565b91506108e3826108ca565b5f82019050919050565b5f6108f7826108cd565b9150819050919050565b5f82825260208201905092915050565b7f4e6f2066756e647320617661696c61626c6520666f72207769746864726177615f8201527f6c00000000000000000000000000000000000000000000000000000000000000602082015250565b5f61096b602183610901565b915061097682610911565b604082019050919050565b5f6020820190508181035f8301526109988161095f565b9050919050565b7f4661696c656420746f207472616e736665722066756e647320746f20726563695f8201527f7069656e74000000000000000000000000000000000000000000000000000000602082015250565b5f6109f9602583610901565b9150610a048261099f565b604082019050919050565b5f6020820190508181035f830152610a26816109ed565b9050919050565b7f596f75206e65656420746f207370656e64206d6f7265204554482100000000005f82015250565b5f610a61601b83610901565b9150610a6c82610a2d565b602082019050919050565b5f6020820190508181035f830152610a8e81610a55565b9050919050565b7f4e487b71000000000000000000000000000000000000000000000000000000005f52601160045260245ffd5b5f610acc826107ac565b9150610ad7836107ac565b9250828201905080821115610aef57610aee610a95565b5b92915050565b5f610aff826107ac565b9150610b0a836107ac565b9250828202610b18816107ac565b91508282048414831517610b2f57610b2e610a95565b5b5092915050565b7f4e487b71000000000000000000000000000000000000000000000000000000005f52601260045260245ffd5b5f610b6d826107ac565b9150610b78836107ac565b925082610b8857610b87610b36565b5b828204905092915050565b5f69ffffffffffffffffffff82169050919050565b610bb181610b93565b8114610bbb575f80fd5b50565b5f81519050610bcc81610ba8565b92915050565b5f819050919050565b610be481610bd2565b8114610bee575f80fd5b50565b5f81519050610bff81610bdb565b92915050565b610c0e816107ac565b8114610c18575f80fd5b50565b5f81519050610c2981610c05565b92915050565b5f805f805f60a08688031215610c4857610c476107dd565b5b5f610c5588828901610bbe565b9550506020610c6688828901610bf1565b9450506040610c7788828901610c1b565b9350506060610c8888828901610c1b565b9250506080610c9988828901610bbe565b9150509295509295909350565b5f610cb082610bd2565b9150610cbb83610bd2565b9250828202610cc981610bd2565b91507f800000000000000000000000000000000000000000000000000000000000000084145f84121615610d0057610cff610a95565b5b8282058414831517610d1557610d14610a95565b5b509291505056fea2646970667358221220aca5524b0fdacf33df9f34e5fed06de31209bc7a0d2935c153d58553cdc605bc64736f6c63430008180033",
  "linkReferences": {},
  "deployedLinkReferences": {}
}